:100000000C9434000C9451000C9451000C94510049
:100010000C9451000C9451000C9451000C9451001C
:100020000C9451000C9451000C9451000C9451000C
:100030000C9451000C9451000C9451000C945100FC
:100040000C9451000C9451000C9451000C945100EC
:100050000C9451000C9451000C9451000C945100DC
:100060000C9451000C94510011241FBECFEFD8E026
:10007000DEBFCDBF11E0A0E0B1E0EEE7F2E002C0EC
:1000800005900D92A830B107D9F721E0A8E0B1E0C2
:1000900001C01D92AD30B207E1F70E9409010C9436
:1000A0003D010C940000CF93DF93CDB7DEB7000085
:1000B000DF91CF910895CF93DF93CDB7DEB70000E6
:1000C000DF91CF9108950F931F93CF93DF93CDB717
:1000D000DEB72B970FB6F894DEBF0FBECDBF8B8374
:1000E0004C835D836E837F831A82198280EC96EC49
:1000F000ADE2B0E088879987AA87BB870C811D8114
:100100002E813F81688579858A859B85A901980123
:100110000E941B01DA01C90101979A8389838981B1
:100120009A81292F332785EC90E0DC012C9384EC15
:1001300090E02981FC01208380EC90E022E0DC014A
:100140002C9381EC90E028E1FC01208382EC90E08C
:1001500026E0DC012C9300002B960FB6F894DEBF4E
:100160000FBECDBFDF91CF911F910F910895CF9317
:10017000DF930F92CDB7DEB7898300000F90DF9138
:10018000CF910895CF93DF9300D000D0CDB7DEB7E5
:1001900089837B836A834C8300000F900F900F90BC
:1001A0000F90DF91CF910895CF93DF9300D000D0CF
:1001B000CDB7DEB789837B836A834C831BC0000085
:1001C00080EC90E0FC018081829586958770882F75
:1001D00090E081709927892B99F38A819B81FC019A
:1001E000208186EC90E0FC0120838A819B8101962E
:1001F0009B838A838A819B81FC0180818823F9F615
:10020000000000000F900F900F900F90DF91CF91A2
:100210000895CF93DF93CDB7DEB740E052EC61E0B5
:1002200070E080E00E94630040E060E071E080E008
:100230000E94D400F9CFA1E21A2EAA1BBB1BFD011C
:100240000DC0AA1FBB1FEE1FFF1FA217B307E407B5
:10025000F50720F0A21BB30BE40BF50B661F771F0D
:10026000881F991F1A9469F76095709580959095ED
:0E0270009B01AC01BD01CF010895F894FFCFB2
:08027E006C6F76650A0D0000AB
:00000001FF
